{
  "contractName": "Votin",
  "abi": [
    {
      "constant": true,
      "inputs": [
        {
          "name": "",
          "type": "address"
        }
      ],
      "name": "hasVoted",
      "outputs": [
        {
          "name": "",
          "type": "bool"
        }
      ],
      "payable": false,
      "stateMutability": "view",
      "type": "function"
    },
    {
      "constant": true,
      "inputs": [],
      "name": "votingEndTime",
      "outputs": [
        {
          "name": "",
          "type": "uint256"
        }
      ],
      "payable": false,
      "stateMutability": "view",
      "type": "function"
    },
    {
      "constant": true,
      "inputs": [],
      "name": "owner",
      "outputs": [
        {
          "name": "",
          "type": "address"
        }
      ],
      "payable": false,
      "stateMutability": "view",
      "type": "function"
    },
    {
      "constant": true,
      "inputs": [],
      "name": "noVotes",
      "outputs": [
        {
          "name": "",
          "type": "uint256"
        }
      ],
      "payable": false,
      "stateMutability": "view",
      "type": "function"
    },
    {
      "constant": true,
      "inputs": [],
      "name": "yesVotes",
      "outputs": [
        {
          "name": "",
          "type": "uint256"
        }
      ],
      "payable": false,
      "stateMutability": "view",
      "type": "function"
    },
    {
      "inputs": [
        {
          "name": "_votingDuration",
          "type": "uint256"
        }
      ],
      "payable": false,
      "stateMutability": "nonpayable",
      "type": "constructor"
    },
    {
      "constant": false,
      "inputs": [
        {
          "name": "_vote",
          "type": "uint8"
        }
      ],
      "name": "vote",
      "outputs": [],
      "payable": false,
      "stateMutability": "nonpayable",
      "type": "function"
    }
  ],
  "bytecode": "0x608060405234801561001057600080fd5b506040516020806104f08339810180604052602081101561003057600080fd5b8101908080519060200190929190505050336000806101000a81548173ffffffffffffffffffffffffffffffffffffffff021916908373ffffffffffffffffffffffffffffffffffffffff160217905550804201600181905550506104568061009a6000396000f3fe608060405260043610610072576000357c01000000000000000000000000000000000000000000000000000000009004806309eef43e146100775780631ea736e0146100e05780638da5cb5b1461010b578063b3f98adc14610162578063b5b47f42146101a0578063fb286c65146101cb575b600080fd5b34801561008357600080fd5b506100c66004803603602081101561009a57600080fd5b81019080803573ffffffffffffffffffffffffffffffffffffffff1690602001909291905050506101f6565b604051808215151515815260200191505060405180910390f35b3480156100ec57600080fd5b506100f5610216565b6040518082815260200191505060405180910390f35b34801561011757600080fd5b5061012061021c565b604051808273ffffffffffffffffffffffffffffffffffffffff1673ffffffffffffffffffffffffffffffffffffffff16815260200191505060405180910390f35b34801561016e57600080fd5b5061019e6004803603602081101561018557600080fd5b81019080803560ff169060200190929190505050610241565b005b3480156101ac57600080fd5b506101b561041e565b6040518082815260200191505060405180910390f35b3480156101d757600080fd5b506101e0610424565b6040518082815260200191505060405180910390f35b60026020528060005260406000206000915054906101000a900460ff1681565b60015481565b6000809054906101000a900473ffffffffffffffffffffffffffffffffffffffff1681565b600154421015156102ba576040517f08c379a00000000000000000000000000000000000000000000000000000000081526004018080602001828103825260178152602001807f566f74696e6720706572696f642068617320656e64656400000000000000000081525060200191505060405180910390fd5b600260003373ffffffffffffffffffffffffffffffffffffffff1673ffffffffffffffffffffffffffffffffffffffff16815260200190815260200160002060009054906101000a900460ff1615151561037c576040517f08c379a00000000000000000000000000000000000000000000000000000000081526004018080602001828103825260168152602001807f596f75206861766520616c726561647920766f7465640000000000000000000081525060200191505060405180910390fd5b6001600260003373ffffffffffffffffffffffffffffffffffffffff1673ffffffffffffffffffffffffffffffffffffffff16815260200190815260200160002060006101000a81548160ff021916908315150217905550600060018111156103e157fe5b8160018111156103ed57fe5b141561040957600160036000828254019250508190555061041b565b60016004600082825401925050819055505b50565b60045481565b6003548156fea165627a7a72305820379d06c7a16859e53167ef7a2438141aee84c422a942bdbeb78ce6238353d83d0029",
  "source": "pragma solidity >=0.4.22 <0.9.0;\r\n\r\ncontract Votin {\r\n\r\n    address public owner;\r\n    uint256 public votingEndTime;\r\n    mapping(address => bool) public hasVoted;\r\n    uint256 public yesVotes;\r\n    uint256 public noVotes;\r\n\r\n    enum VoteOption { Yes, No }\r\n\r\n    constructor(uint256 _votingDuration) public {\r\n        owner = msg.sender;\r\n        votingEndTime = block.timestamp + _votingDuration;\r\n    }\r\n\r\n    function vote(VoteOption _vote) public {\r\n        require(block.timestamp < votingEndTime, \"Voting period has ended\");\r\n        require(!hasVoted[msg.sender], \"You have already voted\");\r\n\r\n        hasVoted[msg.sender] = true;\r\n\r\n        if (_vote == VoteOption.Yes) {\r\n            yesVotes += 1;\r\n        } else {\r\n            noVotes += 1;\r\n        }\r\n    }\r\n\r\n}\r\n",
  "sourcePath": "C:\\Users\\INTEL\\Desktop\\bund pangay\\voting\\contracts\\Voting.sol",
  "compiler": {
    "name": "solc",
    "version": "0.5.1+commit.c8a2cb62.Emscripten.clang"
  },
  "schemaVersion": "3.4.16",
  "updatedAt": "2024-07-23T20:58:19.501Z",
  "devdoc": {
    "methods": {}
  },
  "userdoc": {
    "methods": {}
  }
}