{
  "contractName": "Voting",
  "abi": [
    {
      "constant": true,
      "inputs": [
        {
          "name": "",
          "type": "address"
        }
      ],
      "name": "hasVoted",
      "outputs": [
        {
          "name": "",
          "type": "bool"
        }
      ],
      "payable": false,
      "stateMutability": "view",
      "type": "function"
    },
    {
      "constant": true,
      "inputs": [],
      "name": "votingEndTime",
      "outputs": [
        {
          "name": "",
          "type": "uint256"
        }
      ],
      "payable": false,
      "stateMutability": "view",
      "type": "function"
    },
    {
      "constant": true,
      "inputs": [],
      "name": "owner",
      "outputs": [
        {
          "name": "",
          "type": "address"
        }
      ],
      "payable": false,
      "stateMutability": "view",
      "type": "function"
    },
    {
      "constant": true,
      "inputs": [],
      "name": "noVotes",
      "outputs": [
        {
          "name": "",
          "type": "uint256"
        }
      ],
      "payable": false,
      "stateMutability": "view",
      "type": "function"
    },
    {
      "constant": true,
      "inputs": [],
      "name": "yesVotes",
      "outputs": [
        {
          "name": "",
          "type": "uint256"
        }
      ],
      "payable": false,
      "stateMutability": "view",
      "type": "function"
    },
    {
      "inputs": [
        {
          "name": "_votingDuration",
          "type": "uint256"
        }
      ],
      "payable": false,
      "stateMutability": "nonpayable",
      "type": "constructor"
    },
    {
      "constant": false,
      "inputs": [
        {
          "name": "_vote",
          "type": "uint8"
        }
      ],
      "name": "vote",
      "outputs": [],
      "payable": false,
      "stateMutability": "nonpayable",
      "type": "function"
    },
    {
      "constant": true,
      "inputs": [],
      "name": "getResults",
      "outputs": [
        {
          "name": "yes",
          "type": "uint256"
        },
        {
          "name": "no",
          "type": "uint256"
        }
      ],
      "payable": false,
      "stateMutability": "view",
      "type": "function"
    }
  ],
  "bytecode": "0x608060405234801561001057600080fd5b5060405160208061053e8339810180604052602081101561003057600080fd5b8101908080519060200190929190505050336000806101000a81548173ffffffffffffffffffffffffffffffffffffffff021916908373ffffffffffffffffffffffffffffffffffffffff160217905550804201600181905550506104a48061009a6000396000f3fe60806040526004361061007d576000357c01000000000000000000000000000000000000000000000000000000009004806309eef43e146100825780631ea736e0146100eb5780634717f97c146101165780638da5cb5b14610148578063b3f98adc1461019f578063b5b47f42146101dd578063fb286c6514610208575b600080fd5b34801561008e57600080fd5b506100d1600480360360208110156100a557600080fd5b81019080803573ffffffffffffffffffffffffffffffffffffffff169060200190929190505050610233565b604051808215151515815260200191505060405180910390f35b3480156100f757600080fd5b50610100610253565b6040518082815260200191505060405180910390f35b34801561012257600080fd5b5061012b610259565b604051808381526020018281526020019250505060405180910390f35b34801561015457600080fd5b5061015d61026a565b604051808273ffffffffffffffffffffffffffffffffffffffff1673ffffffffffffffffffffffffffffffffffffffff16815260200191505060405180910390f35b3480156101ab57600080fd5b506101db600480360360208110156101c257600080fd5b81019080803560ff16906020019092919050505061028f565b005b3480156101e957600080fd5b506101f261046c565b6040518082815260200191505060405180910390f35b34801561021457600080fd5b5061021d610472565b6040518082815260200191505060405180910390f35b60026020528060005260406000206000915054906101000a900460ff1681565b60015481565b600080600354600454915091509091565b6000809054906101000a900473ffffffffffffffffffffffffffffffffffffffff1681565b60015442101515610308576040517f08c379a00000000000000000000000000000000000000000000000000000000081526004018080602001828103825260178152602001807f566f74696e6720706572696f642068617320656e64656400000000000000000081525060200191505060405180910390fd5b600260003373ffffffffffffffffffffffffffffffffffffffff1673ffffffffffffffffffffffffffffffffffffffff16815260200190815260200160002060009054906101000a900460ff161515156103ca576040517f08c379a00000000000000000000000000000000000000000000000000000000081526004018080602001828103825260168152602001807f596f75206861766520616c726561647920766f7465640000000000000000000081525060200191505060405180910390fd5b6001600260003373ffffffffffffffffffffffffffffffffffffffff1673ffffffffffffffffffffffffffffffffffffffff16815260200190815260200160002060006101000a81548160ff0219169083151502179055506000600181111561042f57fe5b81600181111561043b57fe5b1415610457576001600360008282540192505081905550610469565b60016004600082825401925050819055505b50565b60045481565b6003548156fea165627a7a72305820d98fddc530de26e122651d488a7e6065a2c6d3113bca5a9ebfaaff19512d24810029",
  "source": "pragma solidity >=0.4.22 <0.9.0;\r\n\r\ncontract Voting {\r\n\r\n    address public owner;\r\n    uint256 public votingEndTime;\r\n    mapping(address => bool) public hasVoted;\r\n    uint256 public yesVotes;\r\n    uint256 public noVotes;\r\n\r\n    enum VoteOption { Yes, No }\r\n\r\n    constructor(uint256 _votingDuration) public {\r\n        owner = msg.sender;\r\n        votingEndTime = block.timestamp + _votingDuration;\r\n    }\r\n\r\n    function vote(VoteOption _vote) public {\r\n        require(block.timestamp < votingEndTime, \"Voting period has ended\");\r\n        require(!hasVoted[msg.sender], \"You have already voted\");\r\n\r\n        hasVoted[msg.sender] = true;\r\n\r\n        if (_vote == VoteOption.Yes) {\r\n            yesVotes += 1;\r\n        } else {\r\n            noVotes += 1;\r\n        }\r\n    }\r\n\r\n    function getResults() public view returns (uint256 yes, uint256 no) {\r\n        return (yesVotes, noVotes);\r\n    }\r\n}\r\n",
  "sourcePath": "C:\\Users\\INTEL\\Desktop\\bund pangay\\voting\\contracts\\Voting.sol",
  "compiler": {
    "name": "solc",
    "version": "0.5.1+commit.c8a2cb62.Emscripten.clang"
  },
  "schemaVersion": "3.4.16",
  "updatedAt": "2024-07-23T20:58:22.732Z",
  "networkType": "ethereum",
  "devdoc": {
    "methods": {}
  },
  "userdoc": {
    "methods": {}
  }
}